:020000020000fc
:04000000d42ff46a9b
:040001009d1adc2048
:04000200674cc0d0b7
:04000300ab9d260487
:0400040083da6d939b
:0400050096a2e5d901
:04000600abf4d44f34
:0400070065eed64389
:040008008e44d4024c
:04000900d72dba5adb
:04000a00c3701ff3ad
:04000b004f6a607662
:04000c00afe57f0bd2
:04000d002d4acf8524
:04000e00b41b1642c7
:04000f00a9f51fe947
:0400100008a452e509
:040011007d4406e044
:040012008d872e7434
:040013001ef3bf9d7c
:04001400e2f603da33
:04001500e6b4140534
:04001600a4c83da895
:040017005042cc7710
:040018008079d9fc16
:04001900c09f6e64b2
:04001a00584cfacf75
:04001b002bfd728eb9
:04001c006e6aca2d11
:04001d007837d74f0a
:04001e0050fbabeff9
:04001f0082bc8e828f
:040020005f516d5768
:040021009779150fa7
:040022005c0f29e561
:04002300c0637e3503
:040024001f25ea6743
:04002500ed706ea16b
:04002600443a2a6fbf
:040027001b93611da9
:040028009356490f93
:0400290043e3d9557f
:04002a002a8dc82231
:04002b00fff814b511
:04002c0018a414c63a
:04002d00cab5ebf075
:04002e003783fcb662
:04002f0012cd078d5a
:04003000d4498236f7
:04003100ab56ed8e4f
:04003200ec165e99d1
:0400330032a849eabc
:0400340044cb7ecf6c
:040035003aa2b7bb79
:04003600b48cfa2c60
:04003700469b8b0455
:04003800003082c44e
:0400390001d3f03cc3
:04003a004287d8958c
:04003b006c164df8fa
:04003c00d6f7c97fab
:04003d00c38de297f6
:04003e008225653f73
:04003f00ece480e984
:04004000afdd2e0bf7
:040041004cc4557adc
:040042006601ec293e
:04004300166e05bc74
:04004400991c2c7a5d
:040045008004e4232c
:040046001cf3284639
:040047009217104cb0
:04004800cf59e1b3f8
:04004900ad2ab9f92a
:04004a00e96e97af15
:04004b002322d16932
:04004c00c19648ce43
:04004d00066dbf2459
:04004e004a0464f00c
:04004f00a0fceda57f
:04005000f943be4c66
:040051000a7f51d3fe
:04005200e4016f0b4b
:040053001c7f97babd
:04005400294a42f003
:040055006063db18f1
:0400560087d00364e8
:04005700a2d1f3f44b
:040058002be4e26152
:04005900c6a5faba84
:04005a00288561b7dd
:04005b00c4e7b6e55b
:04005c0003b5ec2cd0
:04005d00232d39b561
:04005e00b9744761c9
:04005f00efaf05c139
:04006000ecdd7071f2
:04006100a733c7b941
:04006200af5c13b6c6
:04006300c697f5d473
:040064001bba5dd78f
:040065007b796279c8
:040066004c67f80edd
:0400670015a51c1ba4
:040068003c45d456e9
:040069000e1d967062
:04006a00292fa47422
:04006b00f211b19b42
:04006c00b4b6251ee3
:04006d00eb8b653a7a
:04006e0007a879095d
:04006f006bbbcc5b40
:0400700091dee1310b
:04007100c4bb9c0a66
:04007200b04278d34d
:04007300d491e31829
:04007400aaad9b870f
:0400750071029c4632
:0400760056dc73aa37
:040077009e3e4e91ca
:040078000caf23fbab
:04007900172f75299f
:04007a001580bd4ee2
:04007b005e8ac87c55
:04007c001edc4e3dfb
:04007d00d14107a2c4
:04007e003ff3497093
:04007f00c5f8175455
:0400800022796ef380
:04008100f1d285d65d
:040082004129e9c85f
:04008300ea29578689
:04008400de4877a734
:04008500f6e820adcc
:04008600fe82c3c172
:04008700bd4860848c
:04008800e3552de52a
:0400890092b68ad4cd
:04008a0005ea0acbae
:04008b0079ffde8794
:04008c002b4cd5f034
:04008d00942b062d7d
:04008e008998332cee
:04008f009e14dcba25
:04009000c703553f0e
:04009100e143a83d62
:040092007a23b42ced
:040093009619363d47
:04009400d1ed70be7c
:04009500a8c7138f56
:040096003dac64e831
:0400970024bc76f41b
:04009800dc9b5f9cf2
:04009900208c9b829a
:04009a003290f76445
:04009b00242acbca7e
:04009c00236808ede0
:04009d00d7f346a9a6
:04009e000fcba6a539
:04009f0097f9e19c50
:0400a0009acd127c67
:0400a10045dab90d76
:0400a20065845776a4
:0400a3009b2d551c20
:0400a400dcc0d424c4
:0400a5002b7b39ea8e
:0400a6004c8db39832
:0400a700853846c191
:0400a8000fb31797e4
:0400a900724eae40a5
:0400aa00b5d7e2be26
:0400ab00e0d66245f4
:0400ac003063637ddd
:0400ad003a65bd26cd
:0400ae00eaefed6127
:0400af00434229faa5
:0400b000b40c12403a
:0400b100ae41ae6648
:0400b2003bae3e2ff4
:0400b3008b21ba23c0
:0400b400f9250e8f8d
:0400b5001faf6add32
:0400b60045690e5832
:0400b7008f85b52854
:0400b80096e1a16ebe
:0400b90019c6871fbe
:0400ba00a9d248334c
:0400bb006fd0aa0850
:0400bc006a824446ca
:0400bd005f5d30c390
:0400be004317670a73
:0400bf0061da9bc3a4
:0400c0004ef3b53412
:0400c100bc556d5667
:0400c20026b5a7dcdc
:0400c30005de2a81ab
:0400c400506e6d58b5
:0400c500163da858e4
:0400c6005082d3aee3
:0400c700b570c8fb4d
:0400c800ba699a88ef
:0400c900b7df1ced94
:0400ca0045f267682c
:0400cb0041d177f1b7
:0400cc00fc1618b056
:0400cd00e774a460d0
:0400ce0053b791f59e
:0400cf00935efc2719
:0400d00071e445bed4
:0400d10012cfdaee82
:0400d2003ffc1ff7d9
:0400d300bde28a14ec
:0400d4001bae6e15dc
:0400d500d0d1cb6a51
:0400d600a83d7d13b1
:0400d700c8c334570f
:0400d800849c318d46
:0400d9000e2652dac3
:0400da00947dccd570
:0400db0039b5af3f45
:0400dc00ff632d721f
:0400dd007398fe2beb
:0400de002401c8b978
:0400df007ba83104c5
:0400e000681341461a
:0400e100616dcafc87
:0400e2009eb7e304de
:0400e3004237cffed3
:0400e40053396d5dc2
:0400e500ff57a60219
:0400e60044ab4c1dbe
:0400e700594aff3c37
:0400e8002da0f2d283
:0400e9008d850fd51d
:0400ea00df85a3f11a
:0400eb00c81927b356
:0400ec008b9defe316
:0400ed00c563f4f4ff
:0400ee00ee3969df9f
:0400ef00aa73306957
:0400f0004ad4167365
:0400f1005af834a0e5
:0400f2007e3981ad25
:0400f3004677cf2c51
:0400f4004163c99803
:0400f50004894040fa
:0400f6007f32cb3456
:0400f7001aa00eaa93
:0400f800bfd62a0045
:0400f90007b727fe20
:0400fa001e7d8a6479
:0400fb00bee6d58bfd
:0400fc00da17cc9aa9
:0400fd006ecf9aea3e
:0400fe00cca3c2ddf0
:0400ff00d09bed574e
:00000001FF
